:2000000070C0CDC488C087C086C085C084C083C082C081C080C07FC07EC07DC07CC07BC08A
:200020007AC079C078C077C076C075C074C073C072C071C00600FF0901A101150026FF00BE
:200040007508850195070900B20201850295870900B202018503957F0900B202018504956A
:200060000F0900B20201C009021200010100803209040000000000000009021B00010100ED
:20008000803209040000000300000009210101000122330012011001FF000008EB03B4CA85
:2000A00000010102000112011001FF000008EB03B4C80001010200010E03550053004200A6
:2000C00048004900440018037A0068006900660065006E00670073006F0066007400040382
:2000E000090411241FBECFEFD4E0DEBFCDBF11E0A0E0B1E0ECEDF7E102C005900D92A430C9
:20010000B107D9F711E0A4E0B1E001C01D92A536B107E1F7F5C274CFDC01FB01442309F43F
:2001200031C041506D9120E030E85091040180910F01962F9323513071F42D9A082E00C002
:2001400000000A94E1F791112B9A220F2D981C992F5F2B9812C091112B9A082E00C0000097
:200160000A94E1F72D9A082E00C000000A94E1F7220F1C992F5F2B982D98369509F0D9CF6E
:200180002193CCCF0895109281008FEF80938500809384001092890081E0809388001092DA
:2001A0008B0080938A00109287008093860080E48093800089E080938100219A08958091F8
:2001C00080008F7B8093800021980895FC018181893061F4828180930001823021F488B188
:2001E00088B910921D018FEF90E00895813009F0C4C0828180930001813009F0B9C08091FA
:2002000033018E3081F44091390147FD2A984F7067E071E084E391E07FDF8091390186FF09
:200220009DC02A9A9BC0823041F4E0912201F091230180913401099591C08F3009F08EC0E7
:20024000109207018091660080930801EBEFFFE1849180930901ECEFFFE1849180930A0187
:20026000EDEFFFE1849180930B01EEEFFFE1849180930C0180E680930D01EFEFFFE1849142
:2002800080930E0180913801813011F45D980BC0823011F45D9A07C0833011F4459803C0AF
:2002A000843009F4459A809136018130D9F580913701813039F484B18E6384B985B1817C2A
:2002C000826023C0823039F484B18E6384B985B1817C84601AC0833039F484B18E6384B9E3
:2002E00085B1817C886011C0843039F484B18E6384B985B1817C806108C0853041F484B1D3
:200300008E6384B985B1817C806285B906C085B1817C85B984B1817C84B983B186958F7167
:2003200080930E01809134018A3A21F4A8958CE08AB9FFCF853591F480916401882319F059
:200340001092640103C08FEF80936401E4E6F1E0A0E4B0E081E0182E28DAFFCF10923301E1
:2003600087E091E0909349018093480188E003C088B188B98FEF9927089580E090E00895EF
:200380000F931F93CF93DF939C01162F80910001813089F183307CF188B188B900E006177F
:2003A00050F5E90180913301883051F4E0912801F09129018091050190910601099588839F
:2003C00080913301893051F4E0912A01F0912B018091050190910601099588838091050192
:2003E00090910601019690930601809305010F5F21960117B8F2812F9927DF91CF911F9124
:200400000F9108950F931F93CF93DF93FC01062F80910001813009F0D2C0818180933301AE
:2004200012E0161740F4A4E3B1E0329681918D931F5F1017D8F3809133018A3061F5809181
:2004400035018093320180913601813009F49BDE80913201843031F4809134018093110129
:20046000D1D73BC180913201873031F48091340180931101CDD831C180913201883009F0C1
:200480002CC180913401809311018091360180930F016AD922C18B3041F44198409A8FDE63
:2004A000229823982498259818C18C30A9F4419A4098EFEFFFE18491282F3327809166006E
:2004C000992703962817390709F007C1E0912001F0912101099501C1883091F4809135016A
:2004E0009927982F882720913401820F911D90930601809305018091360180931801EDC03D
:20050000893071F4809135019927982F882720913401820F911D9093060180930501DDC03B
:200520008D3009F0DAC020913401822F82958F7080930401822F99278F709070892B11F081
:200540002A9A01C02A98229A239A2498259A8091350199278330910599F08430910534F415
:200560008130910549F0029749F011C08430910549F0059749F00BC081E007C085E005C0E3
:2005800082E303C088E701C08AEF80930F0180913601809312018091370180931301809178
:2005A0003801809314018091390180931501222311F008D601C0DBD5419A40988EC082301E
:2005C00009F08BC088B188B930911D01332319F582819927982F88272181820F911D9093DD
:2005E000170180931601838180931801248120931901958190931A0185818F7780931F0184
:20060000868180931B01385F30931D0197FF65C020931E0162C010E0161708F05EC0EF015A
:2006200020911B012223A9F590911901992329F4E0912401F09125013CC080911E018917ED
:2006400051F4E0912E01F0912F016091160170911701822F0995E0912C01F0912D01609156
:200660001601709117018881099580911E01882361F4E0913001F091310160911601709115
:20068000170109958091190101C0815080931E0116C020911F01222341F033278091160116
:2006A0009091170182179307C0F4E0912601F0912701609116017091170188810995809100
:2006C000160190911701019690931701809316011F5F2196101708F4A3CF81E090E0DF91C3
:2006E000CF911F910F91089583EF8BB98CE08AB99FEF80E08150F1F79150D9F79AB9089500
:20070000CFEFD4E0DEBFCDBFEFDF87B1836287B9559A5D9A459A83E085BD4198409A88E18D
:2007200090E02EE00FB6F894A895809360000FBE20936000E4E6F1E0A0E4B0E081E0182E04
:200740002FD80DD17894A89501D0FDCFCF93DF9360914A01635067FDADC080914701CAE532
:20076000D1E0C81BD109809146018D3209F090C0683009F09DC083EC80933A018AE580937E
:200780000101109210018881807619F0CE011EDD6BC043E451E02A81809343019981992377
:2007A00021F48093440182E05BC0953019F420934B0156C0963009F046C0382F8B8181307F
:2007C00061F480916401882321F032E186EA90E031C032E184E990E02DC0823061F48091B9
:2007E0006401882321F03BE189E790E023C03BE187E690E01FC0833091F4222321F434E07B
:200800008EED90E017C0213021F438E186EC90E011C0223099F43EE088EB90E00BC0813286
:2008200021F439E08BE890E005C0823239F433E384E390E0909349018093480180E48093D4
:200840001001832F11C0983019F44DE451E007C0993019F420934D0103C09A3009F481E044
:200860005093490140934801982F8F3F39F4888187FD9E8180E88093100107C08F818823B3
:2008800021F48E81891708F4982F9093020110C08091100187FF0CC0CE01B4DD8F3F21F424
:2008A0008EE18093010104C0882311F01092020110924A018091010184FF44C08091020104
:2008C0008F3F09F43FC0682F893008F068E0861B8093020180913A0198E8892780933A013D
:2008E000ABE3B1E06623E9F08091100187FF04C0CD0146DD682F15C0962FE0914801F091AE
:20090000490186FF06C084918D9331969150D9F704C081918D939150E1F7F0934901E093A6
:2009200048017727C62F693038F48BE391E033D0CC5FCC3028F401C0CEE18FEF80930201ED
:20094000C093010194E189B18C7031F49150D9F790934B0190934501DF91CF91089580916B
:200960006900826080936900E89A0895A82FB92F80E090E041E050EA609530E009C02D911B
:2009800082279795879510F084279527305EC8F36F5FA8F30895EADF8D939D930895CF9398
:2009A000CFB7CF93C3954B9BE9F74B9B09C04B9B07C04B9B05C04B9B03C04B9B01C0A1C079
:2009C000DF93C0914701DD27C25BDE4F4B9B02C0DF91EBCF2F930F931F9309B12FEF03FB00
:2009E00020F94F933F9319B14FEF012703FB21F93BE031C04E7F012F19B1216028C0102F67
:200A00004D7F2260000009B129C04B7F2460012F000019B12BC019B1477F28602AC04F7EE3
:200A200009B120612CC04F7D19B120622FC04F7B09B1206432C0422709B149934FEF000051
:200A4000102713FB20F919B11C70C9F1297F91F2012703FB21F909B1237F89F2315058F11C
:200A6000102713FB22F919B1277E79F2012703FB23F92F7C81F209B1102713FB24F92F7918
:200A800071F200C019B1012703FB25F92F7359F200C009B1102713FB26F9223040F200C016
:200AA00019B1012703FB27F9243028F64F77206819B10000F9CF11E01CBB002717C03B5083
:200AC0003195C31BD04011E01CBB0881033CE9F00B34D9F0209145011981110F1213EDCF5F
:200AE000093641F10D3211F0013E39F700934C013F914F911F910F912F91DF91CCB3C0FD8A
:200B000051CFCF91CFBFCF91189520914C01222379F310914A01112311F5343012F13093BB
:200B20004A0120934601109147013BE0311B3093470117C000914A0101308CF40AE5309101
:200B4000010134FD10C000930101CAE3D1E00FC02795A8F45150A9F4220F0000F9CF4AE512
:200B600003C042ED01C0432FC4E1D0E032E01AB11C605B9A1AB90BB120E41CE05F93012704
:200B800056E00BB9279520F4515021F4220FF9CF012756E000003B5A0BB9D0F2279528F48B
:200BA000515029F4220F0000F9CF012756E027950BB920F4515021F4220FF9CF012756E07F
:200BC000299133230BB921F6037F10914B01110FC651D0400BB911F01093450111E01CBBFE
:200BE00008601AB1137F402F437F5F9100C000C00BB91AB94BB97CCFAC0120E030E02417B1
:200C0000350740F496B586B5891B8C33E0F32F5F3F4FF5CF08950F931F93CF93DF93CDB77F
:200C2000DEB728970FB6F894DEBF0FBECDBF8C0190911801923088F00115110571F48DE416
:200C40008983FE013196118296959B831C8244E0BE016B5F7F4FCF015FDA802F8170880F8D
:200C6000880F880F90911201982B998380911801FE0131969801232F3327269580FF04C000
:200C8000822F8068818301C02183169507950B8344E0BE016B5F7F4FCE0101963DDA888578
:200CA000992728960FB6F894DEBF0FBECDBFDF91CF911F910F910895CF93DF93CDB7DEB7C5
:200CC00028970FB6F894DEBF0FBECDBF9C01809112018983FE013196832F992781832B8357
:200CE00044E0BE016B5F7F4FCF0116DA8885992728960FB6F894DEBF0FBECDBFDF91CF9117
:200D00000895CF93DF93CDB7DEB728970FB6F894DEBF0FBECDBF9C01809113018983FE0176
:200D20003196832F992781832B8344E0BE016B5F7F4FCF01F1D98885992728960FB6F894D7
:200D4000DEBF0FBECDBFDF91CF910895EF92FF920F931F93CF93DF93CDB7DEB728970FB659
:200D6000F894DEBF0FBECDBF182F7B01962F9170990F990F990F80911401892B8983FE018B
:200D80003196CB01892F992786958183C701969587958B831C8344E0BE016B5F7F4FCF0122
:200DA000BBD91F3721F48FE090E026DF0EC01EE106B5C70130DF8F3741F486B5801B8D3360
:200DC00010F006B511501123A1F781E090E028960FB6F894DEBF0FBECDBFDF91CF911F91D5
:200DE0000F91FF90EF900895DF92EF92FF920F931F93CF93DF93CDB7DEB728970FB6F894D4
:200E0000DEBF0FBECDBFD82E8B01EE24FF24809114018983FE013196872F992781836B83B5
:200E2000DC8244E0BE016B5F7F4FCF0175D984E18A95F1F70EC088E28A95F1F70894E11C77
:200E4000F11C88EEE81683E0F8061CF080E090E006C0C80131DF8D1571F781E090E028969C
:200E60000FB6F894DEBF0FBECDBFDF91CF911F910F91FF90EF90DF900895CF93DF93CDB799
:200E8000DEB728970FB6F894DEBF0FBECDBF482F862F8170880F880F880F90911401982BDC
:200EA000998380911801FE0131969B01232F3327269580FF04C0822F8068818301C02183DE
:200EC000769567956B834C8344E0BE016B5F7F4FCE01019621D928960FB6F894DEBF0FBEFA
:200EE000CDBFDF91CF910895EF92FF920F931F93CF93DF93CDB7DEB728970FB6F894DEBFF9
:200F00000FBECDBFF82E8B0190911801923070F08DE48983FE013196118296959B831C82AD
:200F200044E0BE016B5F7F4FCF01F6D88CE4898380911801FE0131969801232F332726952C
:200F400080FF04C0822F8068818301C02183C801969587958B831C8244E0BE016B5F7F4F15
:200F6000CE010196D9D88FEFF81621F48FE090E043DE0FC02EE1F22EE6B4C8014CDE8F3F60
:200F800041F486B58E198D3310F0E6B4FA94FF20A1F728960FB6F894DEBF0FBECDBFDF9126
:200FA000CF911F910F91FF90EF900895CF93DF93CDB7DEB728970FB6F894DEBF0FBECDBFE3
:200FC000AB01909115019983FE013196252F332721834B838C8344E0BE016B5F7F4FCF01D2
:200FE0009BD88EE190E008DE81E090E028960FB6F894DEBF0FBECDBFDF91CF9108950895D9
:20100000CF93DF93CDB7DEB728970FB6F894DEBF0FBECDBFAB01252F3327922F990F990F72
:20102000990F96609983FE01319641838B8343E0BE016B5F7F4FCF016FD88EE190E0DCDD35
:2010400081E090E028960FB6F894DEBF0FBECDBFDF91CF910895CF93DF93CDB7DEB72897A1
:201060000FB6F894DEBF0FBECDBF282F872F9927982F990F990F990F892F826089838091E6
:201080000401833021F475FF02C096609983FE01319661832B8343E0BE016B5F7F4FCF0199
:2010A0003BD88EE190E0A8DD81E090E028960FB6F894DEBF0FBECDBFDF91CF910895CF9314
:2010C000DF93CDB7DEB728970FB6F894DEBF0FBECDBF9C01892F9927982F990F990F990FAB
:2010E000892F8160898380910401833021F435FF02C095609983FE01319621831B8243E03C
:20110000BE016B5F7F4FCF0107D88F81992728960FB6F894DEBF0FBECDBFDF91CF91089587
:20112000CF93DF93CDB7DEB728970FB6F894DEBF0FBECDBF9C01892F9927880F880F880FE2
:2011400085608983FE01319621831B8243E0BE016B5F7F4FCF01E0D78F81992728960FB643
:20116000F894DEBF0FBECDBFDF91CF91089586ED97E0909327018093260186EA96E0909308
:201180002501809324018DE397E090932D0180932C018BE096E0909329018093280181E8A6
:2011A00096E090932B0180932A018FEF97E090932F0180932E0184E797E090933101809358
:2011C00030010895809104018230A8F080E098E090932701809326018BE298E09093250156
:2011E000809324018FE598E0909329018093280180E998E014C084EF96E090932501809348
:2012000024018CE596E0909329018093280186ED97E0909327018093260181E896E09093C8
:201220002B0180932A0108952D9A2B9A84E0982F9A95F1F72B98982F9A95F1F72D988A9554
:20124000F1F708952B9884E0982F9A95F1F72D9A982F9A95F1F72B9A8A95F1F708952FEFD8
:2012600023982B9A84E0982F9A95F1F72D9A8A95F1F71B9B0DC0215088E08A95F1F7222336
:2012800029F4239ADFDF80E090E008951B99F3CF2D98239A81E090E008952B9884E0982FF5
:2012A0009A95F1F72D9A8A95F1F72D9808952B9A84E0982F9A95F1F72D9A8A95F1F72D984D
:2012C0000895CF93DF9390E023982B9A68E0A4E1B0E0C0E0D0E024E030E040E050E0990FF4
:2012E0008A2F8A95F1F72D9A822F8A95F1F71B9991602D98615099F784E08A95F1F7239ADC
:20130000892F9927DF91CF91089584E0982F9A95F1F72D9A982F9A95F1F72D988A95F1F735
:2013200008951F93CF93C82F239A18E0C7FF02C02B9A01C02B98E9DFCC0F1150B9F78FDF5D
:20134000CF911F910895AF92BF92CF92DF92EF92FF920F931F937B018C0166DF80911101A5
:20136000813039F480EADDDFBB27A12F902F8F2D11C0AF2CB02EC12EDD24823041F4C80112
:20138000AA27BB27880F806ACCDF8A2D03C08A2D880F806AC6DF8E2DC4DF1F910F91FF90DA
:2013A000EF90DF90CF90BF90AF9008950F931F93892B41F460E070E080E090E0C4DF34DF62
:2013C00081EAAFDF7EDF082F112767DF802F99271F910F910895CB01AA27BB27BC01CD019C
:2013E000B2DF08959EDF08952DDF80E395E70197F1F7089584B18E6384B9519A59982B9A99
:201400002D9A08958AEF99E0909321018093200186ED99E0909329018093280182EF99E09E
:2014200090932D0180932C018BEE99E090932F0180932E0184EF99E090933101809330010F
:201440000895509A229A239A259A45985D9824982A982D982B982C9A58980895682F2A9A47
:20146000909111019D5F89F024E030E040E050E067FF02C02B9A01C02B982D9A822F8A9558
:20148000F1F72D98660F915099F72A98089588E9E5DF80E9E3DF2D9A84E0982F9A95F1F7F1
:2014A0002D982A9A8A95F1F720E030E048E050E060E070E02D9A842F8A95F1F72D981C99A9
:2014C00006C02F5F3F4F8FEF2F3F380799F72A9880E8C4DF089588E9C1DF0895CF93DF9383
:2014E000E82F2A9A80911101282F33278DE090E0821B930B02C0660F771F8A95E2F7706A86
:201500002D5F3F4F99F0A4E0B0E0C0E0D0E077FF02C02B9A01C02B982D9A8A2F8A95F1F7BC
:201520002D98660F771F2150304089F724E030E040E050E097E0E7FF02C02B9A01C02B98AE
:201540002D9A822F8A95F1F72D98EE0F915097FFF2CF2A982D9A84E0982F9A95F1F72D9882
:201560002A9A8A95F1F720E030E048E050E060E070E02D9A842F8A95F1F72D981C9906C0E7
:201580002F5F3F4F8FEF2F3F380799F72A98DF91CF91089580E862DF0895CF93DF932A9A67
:2015A000409111012DE030E0241B310902C0880F991F2A95E2F79C01306C4D5F91F0A4E01F
:2015C000B0E0C0E0D0E037FF02C02B9A01C02B982D9A8A2F8A95F1F72D98220F331F41508A
:2015E00091F790E0A8E0B0E0C0E0D0E047E02D9A8A2F8A95F1F7990F1C999F5F2D9841502C
:2016000047FFF5CF2A98892F9927DF91CF91089581E29AE0909321018093200187E49AE0DE
:2016200090932301809322018DEC9AE090932901809328018EE69AE090932D0180932C0132
:201640008BE69AE090932F0180932E018AEC9AE0909331018093300108955D98299A2D9867
:201660002A9A229A239A2498259A219A2C9A2A980895CF93DF93CDB7DEB728970FB6F894D5
:20168000DEBF0FBECDBF41E0BE016F5F7F4FCE01059642D58981992728960FB6F894DEBFE1
:2016A0000FBECDBFDF91CF910895CF93DF93CDB7DEB728970FB6F894DEBF0FBECDBF8D8361
:2016C00041E0BE016F5F7F4FCE01059625D581E090E028960FB6F894DEBF0FBECDBFDF91E4
:2016E000CF910895DF92EF92FF920F931F93CF93DF93CDB7DEB72A970FB6F894DEBF0FBEAD
:20170000CDBFD82E8B012A9886E08E8376E0E72EF12CEC0EFD1E41E0BE016F5F7F4FC70191
:20172000FBD42A9A2A9882E08E83809118018F83812F992788870987DA8645E0BE016F5F84
:201740007F4FC701E9D42A9A81E090E02A960FB6F894DEBF0FBECDBFDF91CF911F910F917A
:20176000FF90EF90DF9008958DE29BE0909321018093200180911101882319F485E59BE02C
:2017800004C0813031F482E79BE0909325018093240189E39BE0909329018093280108953D
:2017A00009D001921A94E1F7089501900BD01A94E1F70895F999FECFB2BDA1BDF89A1196A6
:2017C00000B40895F999FECFB2BDA1BD00BC11960FB6F894FA9AF99A0FBE0895FF5AFF00EF
:00000001FF
